{
  "contractName": "Election",
  "abi": [
    {
      "inputs": [
        {
          "internalType": "bytes32[]",
          "name": "candidateNames",
          "type": "bytes32[]"
        }
      ],
      "payable": false,
      "stateMutability": "nonpayable",
      "type": "constructor"
    },
    {
      "constant": true,
      "inputs": [
        {
          "internalType": "uint256",
          "name": "",
          "type": "uint256"
        }
      ],
      "name": "Candidates",
      "outputs": [
        {
          "internalType": "bytes32",
          "name": "name",
          "type": "bytes32"
        },
        {
          "internalType": "uint256",
          "name": "votesGathered",
          "type": "uint256"
        }
      ],
      "payable": false,
      "stateMutability": "view",
      "type": "function"
    },
    {
      "constant": true,
      "inputs": [],
      "name": "electoralOfficer",
      "outputs": [
        {
          "internalType": "address",
          "name": "",
          "type": "address"
        }
      ],
      "payable": false,
      "stateMutability": "view",
      "type": "function"
    },
    {
      "constant": true,
      "inputs": [
        {
          "internalType": "address",
          "name": "",
          "type": "address"
        }
      ],
      "name": "voter_Mapping",
      "outputs": [
        {
          "internalType": "bool",
          "name": "alreadyVoted",
          "type": "bool"
        },
        {
          "internalType": "address",
          "name": "delegate",
          "type": "address"
        },
        {
          "internalType": "uint256",
          "name": "hasRecivedDelegate",
          "type": "uint256"
        },
        {
          "internalType": "uint256",
          "name": "vote",
          "type": "uint256"
        },
        {
          "internalType": "uint256",
          "name": "weight",
          "type": "uint256"
        }
      ],
      "payable": false,
      "stateMutability": "view",
      "type": "function"
    },
    {
      "constant": true,
      "inputs": [],
      "name": "NoOfCandidates",
      "outputs": [
        {
          "internalType": "uint256",
          "name": "number",
          "type": "uint256"
        }
      ],
      "payable": false,
      "stateMutability": "view",
      "type": "function"
    },
    {
      "constant": false,
      "inputs": [
        {
          "internalType": "address",
          "name": "voter",
          "type": "address"
        }
      ],
      "name": "CheckingPermission",
      "outputs": [],
      "payable": false,
      "stateMutability": "nonpayable",
      "type": "function"
    },
    {
      "constant": false,
      "inputs": [
        {
          "internalType": "uint256",
          "name": "candidateId",
          "type": "uint256"
        }
      ],
      "name": "vote",
      "outputs": [],
      "payable": false,
      "stateMutability": "nonpayable",
      "type": "function"
    },
    {
      "constant": true,
      "inputs": [],
      "name": "findWinningCandidate",
      "outputs": [
        {
          "internalType": "uint256",
          "name": "winningCandidateid",
          "type": "uint256"
        }
      ],
      "payable": false,
      "stateMutability": "view",
      "type": "function"
    },
    {
      "constant": true,
      "inputs": [
        {
          "internalType": "uint256",
          "name": "candidateId",
          "type": "uint256"
        }
      ],
      "name": "findVotesOfEachCandidate",
      "outputs": [
        {
          "internalType": "uint256",
          "name": "voteCount",
          "type": "uint256"
        }
      ],
      "payable": false,
      "stateMutability": "view",
      "type": "function"
    },
    {
      "constant": true,
      "inputs": [],
      "name": "winnerAnnounce",
      "outputs": [
        {
          "internalType": "bytes32",
          "name": "name",
          "type": "bytes32"
        }
      ],
      "payable": false,
      "stateMutability": "view",
      "type": "function"
    },
    {
      "constant": false,
      "inputs": [],
      "name": "endElection",
      "outputs": [],
      "payable": false,
      "stateMutability": "nonpayable",
      "type": "function"
    },
    {
      "constant": false,
      "inputs": [],
      "name": "startElection",
      "outputs": [],
      "payable": false,
      "stateMutability": "nonpayable",
      "type": "function"
    },
    {
      "constant": false,
      "inputs": [
        {
          "internalType": "address",
          "name": "to",
          "type": "address"
        }
      ],
      "name": "delegation",
      "outputs": [],
      "payable": false,
      "stateMutability": "nonpayable",
      "type": "function"
    }
  ],
  "bytecode": "0x60806040526001600060146101000a81548160ff02191690831515021790555034801561002b57600080fd5b5060405161102a38038061102a8339818101604052602081101561004e57600080fd5b810190808051604051939291908464010000000082111561006e57600080fd5b8382019150602082018581111561008457600080fd5b82518660208202830111640100000000821117156100a157600080fd5b8083526020830192505050908051906020019060200280838360005b838110156100d85780820151818401526020810190506100bd565b50505050905001604052505050336000806101000a81548173ffffffffffffffffffffffffffffffffffffffff021916908373ffffffffffffffffffffffffffffffffffffffff16021790555060008090505b81518110156101ae576001604051806040016040528084848151811061014d57fe5b602002602001015181526020016000815250908060018154018082558091505090600182039060005260206000209060020201600090919290919091506000820151816000015560208201518160010155505050808060010191505061012b565b5050610e6b806101bf6000396000f3fe608060405234801561001057600080fd5b50600436106100b45760003560e01c8063943477331161007157806394347733146101805780639f9aacca14610224578063c2cb91271461026e578063c84f36961461028c578063e00d302b146102d0578063eed50a3214610312576100b4565b80630121b93f146100b95780631c7e6275146100e7578063290e92121461010557806359f784681461014e57806362d73eb814610158578063854893d814610162575b600080fd5b6100e5600480360360208110156100cf57600080fd5b8101908080359060200190929190505050610356565b005b6100ef6104fc565b6040518082815260200191505060405180910390f35b6101316004803603602081101561011b57600080fd5b810190808035906020019092919050505061050c565b604051808381526020018281526020019250505060405180910390f35b61015661053d565b005b61016061061b565b005b61016a610638565b6040518082815260200191505060405180910390f35b6101c26004803603602081101561019657600080fd5b81019080803573ffffffffffffffffffffffffffffffffffffffff1690602001909291905050506106af565b60405180861515151581526020018573ffffffffffffffffffffffffffffffffffffffff1673ffffffffffffffffffffffffffffffffffffffff1681526020018481526020018381526020018281526020019550505050505060405180910390f35b61022c610712565b604051808273ffffffffffffffffffffffffffffffffffffffff1673ffffffffffffffffffffffffffffffffffffffff16815260200191505060405180910390f35b610276610737565b6040518082815260200191505060405180910390f35b6102ce600480360360208110156102a257600080fd5b81019080803573ffffffffffffffffffffffffffffffffffffffff169060200190929190505050610769565b005b6102fc600480360360208110156102e657600080fd5b81019080803590602001909291905050506109de565b6040518082815260200191505060405180910390f35b6103546004803603602081101561032857600080fd5b81019080803573ffffffffffffffffffffffffffffffffffffffff169060200190929190505050610a06565b005b61035f33610769565b6000600260003373ffffffffffffffffffffffffffffffffffffffff1673ffffffffffffffffffffffffffffffffffffffff168152602001908152602001600020905060008160030154141561041d576040517f08c379a00000000000000000000000000000000000000000000000000000000081526004018080602001828103825260148152602001807f486173206e6f20726967687420746f20766f746500000000000000000000000081525060200191505060405180910390fd5b8060000160009054906101000a900460ff16156104a2576040517f08c379a000000000000000000000000000000000000000000000000000000000815260040180806020018281038252600d8152602001807f416c726561647920766f7465640000000000000000000000000000000000000081525060200191505060405180910390fd5b60018160000160006101000a81548160ff0219169083151502179055508181600201819055508060030154600183815481106104da57fe5b9060005260206000209060020201600101600082825401925050819055505050565b6000600180549050905080905090565b6001818154811061051957fe5b90600052602060002090600202016000915090508060000154908060010154905082565b6000809054906101000a900473ffffffffffffffffffffffffffffffffffffffff1673ffffffffffffffffffffffffffffffffffffffff163373ffffffffffffffffffffffffffffffffffffffff16146105ff576040517f08c379a00000000000000000000000000000000000000000000000000000000081526004018080602001828103825260098152602001807f4e6f20616363657373000000000000000000000000000000000000000000000081525060200191505060405180910390fd5b60008060146101000a81548160ff021916908315150217905550565b6001600060146101000a81548160ff021916908315150217905550565b6000806000905060008090505b6001805490508110156106aa57816001828154811061066057fe5b906000526020600020906002020160010154111561069d576001818154811061068557fe5b90600052602060002090600202016001015491508092505b8080600101915050610645565b505090565b60026020528060005260406000206000915090508060000160009054906101000a900460ff16908060000160019054906101000a900473ffffffffffffffffffffffffffffffffffffffff16908060010154908060020154908060030154905085565b6000809054906101000a900473ffffffffffffffffffffffffffffffffffffffff1681565b600080610742610638565b90506001818154811061075157fe5b90600052602060002090600202016000015491505090565b60011515600060149054906101000a900460ff161515146107f2576040517f08c379a00000000000000000000000000000000000000000000000000000000081526004018080602001828103825260198152602001807f456c656374696f6e204e6f742074616b696e6720706c6163650000000000000081525060200191505060405180910390fd5b600260008273ffffffffffffffffffffffffffffffffffffffff1673ffffffffffffffffffffffffffffffffffffffff16815260200190815260200160002060000160009054906101000a900460ff16156108b5576040517f08c379a00000000000000000000000000000000000000000000000000000000081526004018080602001828103825260178152602001807f566f7465722068617320616c726564617920566f74656400000000000000000081525060200191505060405180910390fd5b6001600260008373ffffffffffffffffffffffffffffffffffffffff1673ffffffffffffffffffffffffffffffffffffffff168152602001908152602001600020600301819055506000600260008373ffffffffffffffffffffffffffffffffffffffff1673ffffffffffffffffffffffffffffffffffffffff1681526020019081526020016000206001015411156109db57600260008273ffffffffffffffffffffffffffffffffffffffff1673ffffffffffffffffffffffffffffffffffffffff16815260200190815260200160002060010154600260008373ffffffffffffffffffffffffffffffffffffffff1673ffffffffffffffffffffffffffffffffffffffff168152602001908152602001600020600301600082825401925050819055505b50565b6000600182815481106109ed57fe5b9060005260206000209060020201600101549050919050565b610a0f33610769565b6000600260003373ffffffffffffffffffffffffffffffffffffffff1673ffffffffffffffffffffffffffffffffffffffff16815260200190815260200160002090508060000160009054906101000a900460ff1615610ad7576040517f08c379a00000000000000000000000000000000000000000000000000000000081526004018080602001828103825260168152602001807f596f75206861766520616c726561647920766f7465640000000000000000000081525060200191505060405180910390fd5b3373ffffffffffffffffffffffffffffffffffffffff168273ffffffffffffffffffffffffffffffffffffffff161415610b5c576040517f08c379a000000000000000000000000000000000000000000000000000000000815260040180806020018281038252602a815260200180610e0d602a913960400191505060405180910390fd5b5b600073ffffffffffffffffffffffffffffffffffffffff16600260008473ffffffffffffffffffffffffffffffffffffffff1673ffffffffffffffffffffffffffffffffffffffff16815260200190815260200160002060000160019054906101000a900473ffffffffffffffffffffffffffffffffffffffff1673ffffffffffffffffffffffffffffffffffffffff1614610cff57600260008373ffffffffffffffffffffffffffffffffffffffff1673ffffffffffffffffffffffffffffffffffffffff16815260200190815260200160002060000160019054906101000a900473ffffffffffffffffffffffffffffffffffffffff1691503373ffffffffffffffffffffffffffffffffffffffff168273ffffffffffffffffffffffffffffffffffffffff161415610cfa576040517f08c379a000000000000000000000000000000000000000000000000000000000815260040180806020018281038252601b8152602001807f4c6f6f70696e6720666f756e6420696e2064656c65676174696f6e000000000081525060200191505060405180910390fd5b610b5d565b60018160000160006101000a81548160ff021916908315150217905550818160000160016101000a81548173ffffffffffffffffffffffffffffffffffffffff021916908373ffffffffffffffffffffffffffffffffffffffff1602179055506000600260008473ffffffffffffffffffffffffffffffffffffffff1673ffffffffffffffffffffffffffffffffffffffff16815260200190815260200160002090508060000160009054906101000a900460ff1615610df25781600301546001826002015481548110610dcf57fe5b906000526020600020906002020160010160008282540192505081905550610e07565b80600101600081548092919060010191905055505b50505056fe596f752063616e27742064656c656761746520796f757220766f746520746f20796f757273656c766573a265627a7a72315820372343f2295770102f46c9c5c4313ea1d957210e3aab681ad0af5de71f76bec764736f6c63430005100032",
  "source": "pragma solidity 0.5.16;\r\n\r\ncontract Election{\r\n\r\n    address public electoralOfficer;\r\n\r\n    bool Election_goingon = true;\r\n\r\n    struct Voter{\r\n        bool alreadyVoted;\r\n        address delegate;\r\n\t    uint hasRecivedDelegate; \r\n        uint vote;\r\n        uint weight;\r\n    }\r\n    struct Candidate{\r\n        bytes32 name;\r\n        uint votesGathered;\r\n    }\r\n\r\n    Candidate[] public Candidates;\r\n\r\n    \r\n    mapping(address => Voter) public voter_Mapping;\r\n\r\n     constructor(bytes32[] memory candidateNames) public {\r\n        electoralOfficer = msg.sender;\r\n        for(uint i=0;i<candidateNames.length;i++){\r\n            Candidates.push(\r\n                Candidate(\r\n                    {\r\n                        name:candidateNames[i],\r\n                        votesGathered: 0\r\n                    }\r\n                )\r\n            );\r\n        }\r\n    }\r\n    function NoOfCandidates() public view returns(uint number) {\r\n        number = Candidates.length;\r\n        return number;\r\n        \r\n    }\r\n        \r\n    function CheckingPermission(address voter) public{\r\n        require(\r\n            Election_goingon == true,\r\n            \"Election Not taking place\"\r\n        );  \r\n        require(\r\n            !voter_Mapping[voter].alreadyVoted,\r\n            \"Voter has alreday Voted\"\r\n        );\r\n        // require(\r\n        //     voter_Mapping[voter].weight == 0,\r\n        //     \"Has no right to vote\"    \r\n        // );\r\n        //if all of the above 4 conditions satisfy allow voter to vote\r\n        voter_Mapping[voter].weight = 1;\r\n    \tif(voter_Mapping[voter].hasRecivedDelegate>0){\r\n    \t\tvoter_Mapping[voter].weight += voter_Mapping[voter].hasRecivedDelegate;\r\n    \t}\r\n    }\r\n\r\nfunction vote(uint candidateId) public{\r\n        CheckingPermission(msg.sender);\r\n        Voter storage sender = voter_Mapping[msg.sender];\r\n\r\n        require(\r\n            sender.weight !=0,\r\n            \"Has no right to vote\"\r\n        );\r\n        require(\r\n            !sender.alreadyVoted,\r\n            \"Already voted\"\r\n        );\r\n        sender.alreadyVoted = true;\r\n        sender.vote = candidateId;\r\n        Candidates[candidateId].votesGathered += sender.weight;\r\n        // Candidates[candidateId].votesGathered += 1;\r\n    }\r\n\r\n    function findWinningCandidate() public view returns(uint winningCandidateid){\r\n        uint maxVoteCount = 0;\r\n        for(uint i=0; i < Candidates.length;i++){\r\n            if(Candidates[i].votesGathered > maxVoteCount){\r\n                maxVoteCount = Candidates[i].votesGathered;\r\n                winningCandidateid = i;\r\n            }\r\n        }\r\n    }\r\n    \r\n    function findVotesOfEachCandidate(uint candidateId) public view returns(uint voteCount){\r\n        \r\n        voteCount = Candidates[candidateId].votesGathered;\r\n    }\r\n\r\n    function winnerAnnounce() public view returns(bytes32 name){\r\n        uint id = findWinningCandidate();\r\n        name = Candidates[id].name;\r\n    }\r\n\r\n    function endElection() public{\r\n        require(\r\n            msg.sender == electoralOfficer,\r\n            \"No access\"\r\n        );\r\n        Election_goingon = false;\r\n    }\r\n    \r\n    function startElection() public{\r\n        Election_goingon = true;\r\n    }\r\n\r\n    function delegation(address to) public{\r\n        CheckingPermission(msg.sender);\r\n        Voter storage sender = voter_Mapping[msg.sender];\r\n        require(\r\n            !sender.alreadyVoted,\r\n            \"You have already voted\"\r\n        );\r\n        require(\r\n            to != msg.sender,\r\n            \"You can't delegate your vote to yourselves\"\r\n        );\r\n\r\n        while(voter_Mapping[to].delegate != address(0)){\r\n            to = voter_Mapping[to].delegate;\r\n\r\n            require(\r\n                to != msg.sender,\r\n                \"Looping found in delegation\"\r\n            );\r\n        }\r\n        sender.alreadyVoted = true;\r\n        sender.delegate = to;\r\n        Voter storage delegated = voter_Mapping[to];\r\n        if(delegated.alreadyVoted){\r\n            \r\n            Candidates[delegated.vote].votesGathered += sender.weight;\r\n        }\r\n        else{\r\n\t        delegated.hasRecivedDelegate++;\r\n            //delegated.weight += sender.weight;\r\n        }\r\n    }\r\n}",
  "sourcePath": "D:/sem 6/CIP/Project/contracts/Election.sol",
  "compiler": {
    "name": "solc",
    "version": "0.5.16+commit.9c3226ce.Emscripten.clang"
  },
  "schemaVersion": "3.3.4",
  "updatedAt": "2021-04-14T15:36:30.317Z",
  "networkType": "ethereum",
  "devdoc": {
    "methods": {}
  },
  "userdoc": {
    "methods": {}
  }
}